:020000040000FA
:060000000A128A110C280F
:10000800FE00030EF1000A08F2000A128A111428F1
:100018000A128A110F28F30183010A128A11502843
:10002800831203138C1E19281A2835281A08F00081
:100038007008F30031307306031D2328242825286F
:10004800061432307306031D2A282B282C28061084
:1000580033307306031D31283228342802308606CF
:100068008C1272088A00710E8300FE0E7E0E090043
:1000780083160313181519309900181283120313E5
:10008800981783160313071787178C160B178B17E8
:1000980083120313181608000A128A113C200A1248
:1000A8008A11831603130610861083120313061091
:0A00B80086105D280A128A110C2838
:02400E00393F38
:00000001FF
